:020000040800F2
:1000000000000220BD1200087511000877110008D9
:10001000791100087B1100087D1100080000000024
:100020000000000000000000000000007F11000838
:1000300081110008000000008311000885110008EC
:100040000D1300080D1300080D1300080D13000810
:100050000D1300080D1300080D1300080D13000800
:100060000D1300080D1300080D1300080D130008F0
:100070000D1300080D1300080D1300080D130008E0
:100080000D1300080D1300080D13000800000000F8
:100090000000000000000000000000000D13000838
:1000A0000D1300080D1300080D1300080D130008B0
:1000B0000D130008891100080D1300080D13000826
:1000C0000D1300080D1300080D1300080D13000890
:1000D0000D1300080D1300080D13000800000000A8
:1000E0000D1300080D1300080D1300080000000098
:1000F0000000000000000000000000000D130008D8
:10010000000000000D1300080D1300080D13000877
:1001100000000000000000000000000000000000DF
:100120000D1300080D1300080D1300080D1300082F
:100130000D13000800000000000000000000000097
:100140000000000000000000000000000D13000887
:100150000D1300080D1300080D1300080D130008FF
:100160000D1300080D13000800000000000000003F
:10017000000000000000000000000000000000007F
:10018000000000000D130008000000000000000047
:080190000D1300080D13000817
:1001980010B5054C237833B9044B13B10448AFF3B9
:1001A80000800123237010BD0C0000200000000017
:1001B8006813000808B5034B1BB103490348AFF3A4
:1001C800008008BD0000000010000020681300082F
:1001D80053B94AB9002908BF00281CBF4FF0FF31A6
:1001E8004FF0FF3000F07AB9ADF1080C6DE904CE9C
:1001F80000F006F8DDF804E0DDE9022304B07047FA
:100208002DE9F0478C460D460446089E002B51D137
:100218008A4217466DD9B2FA82FEBEF1000F0BD0A2
:10022800CEF1200C01FA0EF520FA0CFC02FA0EF7BA
:100238004CEA050C00FA0EF44FEA174A250CBCFBF1
:10024800FAF81FFA87F90AFB18CC45EA0C4508FBAF
:1002580009F3AB420AD9ED1908F1FF3280F0238186
:10026800AB4240F22081A8F102083D44ED1AA4B245
:10027800B5FBFAF00AFB105544EA054400FB09F9FE
:10028800A14509D9E41900F1FF3380F00A81A1459D
:1002980040F2078102383C44A4EB090440EA0840D4
:1002A8000021002E61D024FA0EF40023346073601C
:1002B800BDE8F0878B4207D9002E54D0002186E88C
:1002C80021000846BDE8F087B3FA83F1002940F021
:1002D8008E80AB4202D3824200F2FA80841A65EB28
:1002E80003050120AC46002E3FD086E81010BDE87B
:1002F800F08712B90127B7FBF2F7B7FA87FEBEF10C
:10030800000F34D1EB1B3A0C1FFA87FC0121B3FB19
:10031800F2F8250C02FB183345EA03450CFB08F3F9
:10032800AB4207D9ED1908F1FF3002D2AB4200F217
:10033800D1808046ED1AA3B2B5FBF2F002FB10554E
:1003480043EA05440CFB00FCA44507D9E41900F175
:10035800FF3302D2A44500F2B8801846A4EB0C047F
:1003680040EA08409DE731463046BDE8F087CEF1C7
:10037800200405FA0EF307FA0EF720FA04F83A0CEF
:1003880025FA04F448EA0308B4FBF2F14FEA1845E9
:1003980002FB11441FFA87FC45EA044501FB0CF3F4
:1003A800AB4200FA0EF409D9ED1901F1FF3080F0E3
:1003B8008A80AB4240F2878002393D44EB1A1FFA2B
:1003C80088F5B3FBF2F002FB103345EA034500FB66
:1003D8000CF3AB4207D9ED1900F1FF386FD2AB42ED
:1003E8006DD902383D44EB1A40EA01418FE7C1F16B
:1003F800200722FA07F88B4005FA01F448EA0303BC
:1004080020FA07FE4FEA134CFD404EEA040EB5FBF6
:10041800FCF94FEA1E440CFB19551FFA83F844EA0D
:10042800054509FB08F4AC4202FA01F200FA01FAA8
:1004380008D9ED1809F1FF3043D2AC4241D9A9F1EE
:1004480002091D442D1B1FFA8EFEB5FBFCF00CFBA8
:1004580010554EEA054400FB08F8A04507D9E418F2
:1004680000F1FF3529D2A04527D902381C4440EABB
:100478000940A4EB0804A0FB02894C45C6464D463A
:1004880015D312D056B1BAEB0E0364EB050404FA87
:1004980007F7CB401F43CC40376074600021BDE8AC
:1004A800F0871846F8E69046E0E6C245EAD2B8EB8F
:1004B800020E69EB03050138E4E72846D7E7404612
:1004C80091E78146BEE7014678E702383C4445E7B4
:1004D800084608E7A8F102083D442BE7704700BF2B
:1004E80038B50E4A0E4B054618784FF47A73B3FBAD
:1004F800F0F31068B0FBF3F000F088F8044658B940
:100508000F2D09D8024629464FF0FF3000F04AF86F
:10051800044B20461D6038BD012038BD080000206E
:10052800000000200400002008B50B4B1A6842F4B4
:1005380000721A601A6842F480621A601A6842F4FB
:1005480080721A60032000F01BF80020FFF7C8FF34
:1005580000F0ECFD002008BD003C0240034A044BBB
:1005680011681B780B441360704700BF34000020EB
:1005780000000020014B1868704700BF34000020BD
:10058800074AD36823F4E0631B041B0C43F0BF63E2
:10059800000243F4003300F4E0600343D360704783
:1005A80000ED00E0174B30B5DC68C4F30224C4F159
:1005B8000703251D042B28BF0423062D4FF0010532
:1005C80005FA03F303F1FF338CBF033C0024194001
:1005D800A14005FA04F4013C2240002842EA010245
:1005E8004FEA0212ADBF00F1604000F00F00064B69
:1005F80000F56140B5BFD2B2D2B21A5480F80023D8
:1006080030BD00BF00ED00E014ED00E00138B0F1AE
:10061800807F0AD2064B074A5860F02182F82310DF
:100628000020072298601A6070470120704700BFB9
:1006380010E000E000ED00E02DE9F04F85B00B6818
:10064800DFF88C81604A01934FF001090023019D76
:1006580009FA03F42540AC4240F0A6804C6824F027
:10066800100C0CF1FF36012E4FEA430E12D88768A2
:10067800032606FA0EF627EA0607CE6806FA0EF6ED
:100688003E4386604768C4F3001627EA05079E4084
:100698003E4346600326C76806FA0EF6F64307EAA5
:1006A800060A8F6807FA0EF747EA0A07BCF1020F35
:1006B800C76016D14FEAD30A00EB8A0A03F0070B8A
:1006C800DAF820704FEA8B0B4FF00F0C0CFA0BFC8A
:1006D80027EA0C0C0F6907FA0BF747EA0C07CAF868
:1006E800207007683E4004F0030707FA0EFE4EEA42
:1006F80006060660E60057D54FF0000BCDF80CB0A3
:10070800D8F84470314E47F48047C8F84470D8F898
:10071800447007F480470397039F23F0030707F10A
:10072800804707F59C3703F0030CD7F808A04FEA79
:100738008C0C4FF00F0E0EFA0CFEB0422AEA0E0E89
:1007480039D006F58066B04237D006F58066B042EB
:1007580035D006F58066B04233D006F58066B042E3
:1007680014BF0726042606FA0CF646EA0E06BE60F3
:100778001668EF4314F4803F0CBF3E402E431660CA
:10078800566814F4003F0CBF3E402E4356609668EE
:1007980014F4801F0CBF3E402E439660D668A40216
:1007A80054BF3E402E43D6600133102B7FF44FAF29
:1007B80005B0BDE8F08F5E46D5E70126D3E70226EF
:1007C800D1E70326CFE700BF003C0140000002400C
:1007D800003802400AB1816170470904FBE7000054
:1007E8002DE9F341044608B901203FE00368DD071D
:1007F80010D4236898075AD423681A0700F19C80FC
:1008080023685B0700F1BA80A069002840F01B81CB
:1008180000202BE0A44B9A6802F00C02042A07D0AF
:100828009A6802F00C02082A0AD15B68590207D5B7
:100838009D4B1B689A03DCD56368002BD9D1D3E79D
:100848006368994DB3F5803F13D12B6843F4803327
:100858002B60FFF78FFE944D06462B689B03C8D488
:10086800FFF788FE801B6428F7D9032002B0BDE893
:10087800F081B3F5A02F04D12B6843F480232B60BB
:10088800E3E72A6822F480322A602A6822F4802268
:100898002A60002BDDD1FFF76DFE06462B689F030B
:1008A800A7D5FFF767FE801B6428F7D9DDE77E4BE5
:1008B8009A6812F00C0F07D09A6802F00C02082A06
:1008C80011D15B685E020ED4774B1A68950702D582
:1008D800E268012A88D11A68216922F0F80242EAFE
:1008E800C1021A6088E7E268704BB2B101221A604F
:1008F800FFF740FE6C4D06462B68980707D52B6816
:10090800226923F0F80343EAC2032B6074E7FFF778
:1009180031FE801B0228EFD9A7E71A60FFF72AFEED
:10092800614D06462B6899077FF566AFFFF722FEF3
:10093800801B0228F6D998E762695D4B7AB10122DB
:100948001A60FFF717FE584D06466B6F9F073FF575
:1009580057AFFFF70FFE801B0228F6D985E71A600C
:10096800FFF708FE504D06466B6F98077FF548AFB6
:10097800FFF700FE801B0228F6D976E74A4B1A6C6F
:1009880012F0805228D101921A6C42F080521A64F7
:100998001B6C03F080530193019B0126454D2B6886
:1009A800D9051BD5A368404D012B27D12B6F43F0E8
:1009B80001032B67FFF7DEFD3B4D074641F2883800
:1009C8002B6F9B0739D5002E3FF41EAF364A136CA8
:1009D80023F08053136417E70026DFE72B6843F4FE
:1009E80080732B60FFF7C6FD07462B68DA05D9D45C
:1009F800FFF7C0FDC01B0228F7D936E7052B04D145
:100A08002B6F43F004032B67D0E72A6F22F0010213
:100A18002A672A6F22F004022A67002BCAD1FFF73F
:100A2800A9FD41F2883807462B6F9807CBD5FFF709
:100A3800A1FDC01B4045F7D917E7FFF79BFDC01B79
:100A48004045BDD911E7184DAB6803F00C03082BDE
:100A580047D0194E00230228336035D1FFF78AFDAD
:100A680007462B68990129D4226AE3691343626A0D
:100A780043EA8213E26A43EA0263A26A0A4C520812
:100A8800013A43EA02436B6001233360FFF772FDCA
:100A9800054623689A013FF5BBAEFFF76BFD401B87
:100AA8000228F6D9E1E600BF0038024000004742BC
:100AB800800E47420070004060004742FFF75AFD31
:100AC800C01B0228CDD9D0E6FFF754FD04462B6899
:100AD8009B017FF59DAEFFF74DFD001B0228F6D95F
:100AE800C3E601283FF4C2AE6868E36900F48002F7
:100AF8009A427FF479AE226A00F03F0393427FF472
:100B080073AE626A47F6C073034093427FF46CAEDB
:100B1800A26A00F4403393427FF466AEE36A00F0C1
:100B28007060C01A18BF0120A0E600BF134908B5BD
:100B38008B6803F00C03042B03D0082B03D0104858
:100B480008BD104808BD4A684B68496813F480031B
:100B580014BF0C480A48C1F3881118BF002302F0DB
:100B68003F02A1FB0001FFF733FB044B5B68C3F3B3
:100B7800014301335B00B0FBF3F008BD00380240CD
:100B88000024F40000127A002DE9F0410D460446D5
:100B980010B90120BDE8F081444B1A6802F00F0239
:100BA8008A4229D321688F072ED4C80741D43F4BE6
:100BB8001A6802F00F02954267D3226851076DD474
:100BC800130707D53A4A2169936823F4604343EA37
:100BD800C1039360FFF7AAFF354B364A9B68C3F3FE
:100BE8000313D35CD840344B1860344B1868FFF7B4
:100BF80077FC0020BDE8F081CAB21A701B6803F0C8
:100C08000F039942C5D1CDE7294B11F0040F1EBF40
:100C18009A6842F4E0529A600E0742BF9A6842F41A
:100C280060429A609A68A06822F0F00202439A60D3
:100C3800BBE762681E4B012A1DD11B6813F4003FF5
:100C4800A7D01B4EB36823F003031343B360FFF729
:100C580091FC41F288380746B368626803F00C03D8
:100C6800B3EB820FA3D0FFF785FCC01B4045F3D937
:100C78000320BDE8F081911E01291B6802D813F0FA
:100C8800007FDDE713F0020FDAE7EAB21A701B689B
:100C980003F00F039D427FF47CAF8EE70449E068C0
:100CA8008B6823F4E05303438B6089E7003C0240E0
:100CB80000380240801300080800002004000020CB
:100CC800036889B1042907D01A6A22F001021A625E
:100CD8001A6A42F001021A621A6A22F010021A62B3
:100CE8001A6A42F0100206E01A6A22F001021A6239
:100CF8001A6A42F001021A621A6842F001021A6086
:100D08000020704770477047704770477047036806
:100D18001A69910710B504460ED5DA6892070BD503
:100D28006FF002021A619B6901229B07027777D054
:100D3800FFF7EAFF0023237723681A69500710D5C5
:100D4800DA6851070DD56FF004021A619B69022217
:100D580013F4407F2277204668D0FFF7D5FF0023A1
:100D6800237723681A6912070FD5DA6810070CD59C
:100D78006FF008021A61DB6904229907227720467E
:100D88005AD0FFF7C1FF0023237723681A69D206D8
:100D980010D5DA68D0060DD56FF010021A61DB693C
:100DA800082213F4407F227720464BD0FFF7ACFF90
:100DB8000023237723681A69D10708D5DA68D20790
:100DC80005D56FF001021A612046FFF79BFF2368E3
:100DD8001A69100608D5DA68110605D56FF0800281
:100DE8001A61204600F00BF923681A69520608D5E3
:100DF800DA68500605D56FF040021A612046FFF701
:100E080085FF23681A69910622D5DA6892061FD5EC
:100E18006FF0200220461A61BDE8104000F0EEB8DD
:100E2800FFF771FF2046FFF770FF83E7FFF76BFFBF
:100E38002046FFF76AFF92E7FFF765FF2046FFF7B6
:100E480064FFA0E7FFF75FFF2046FFF75EFFAFE70D
:100E580010BD0000244A036890420ED0B0F1804FC4
:100E68000BD0A2F57C42904207D002F580629042F6
:100E780003D002F58062904215D14A6823F07003CE
:100E88001343194A904219D0B0F1804F16D0A2F5F9
:100E98007C42904212D002F5806290420ED002F558
:100EA800806290420AD0114A904207D002F58062CF
:100EB800904203D002F58062904203D1CA6823F4BD
:100EC800407313434A6923F08003134303608B681C
:100ED800C3620B688362044B984204BF0B690363C7
:100EE80001234361704700BF0000014000400140FA
:100EF800F8B50C460546002843D090F83D3003F07D
:100F0800FF021BB980F83C2000F09EF92946022315
:100F180051F8040B85F83D30836823F4804323F0AF
:100F280007038360FFF796FF28682368866882694D
:100F3800A168076A1E43A36922F4407222F00302E3
:100F480041EA0323134323F47C422369E1691B012B
:100F580043EA0123E1680B43216A22F0FC0243EAD9
:100F680001331343616927F0AA026768866047EA7C
:100F78000117836117430123076285F83D3000207C
:100F8800F8BD0120F8BD000090F83C30012B30B5C9
:100F98004FF002032DD080F83D3003680D685C687F
:100FA80024F0700401222C4380F83C209A685C608D
:100FB800114CA34212D0B3F1804F0FD0A4F57C445A
:100FC800A3420BD004F58064A34207D004F58064E3
:100FD800A34203D004F59A34A34204D1496822F00D
:100FE80080020A439A60012380F83D30002380F88C
:100FF8003C30184630BD00BF0000014070477047C4
:1010080030B589B01422002103A800F0A1F900240A
:10101800144B01941A6B144D42F010021A631A6BA8
:1010280002F010020192019A02941A6B42F008022F
:101038001A631B6B03F008030293224628464FF4F9
:101048007041029BFFF7C6FB4FF47043039303A95B
:1010580001232846049305940694FFF7EDFA09B096
:1010680030BD00BF00380240000C024010B594B0FB
:101078003022002108A800F06BF90021142203A8EF
:1010880000F066F90024164B01941A6C42F0805265
:101098001A641B6C03F080530193019B114B02945B
:1010A8001A6842F440421A601B680E9403F44043E5
:1010B8000293029B0223089301230B9308A8102391
:1010C8000C93FFF78DFB0F23214603A80393049489
:1010D800059406940794FFF757FD14B010BD00BFA0
:1010E80000380240007000400C4C08B5FFF71CFAAD
:1010F800FFF7BCFFFFF784FF00F076F83C2120469D
:10110800FFF7DEFD226806480649536A0360136844
:1011180083F01003C3F300130B60F6E77C00002094
:1011280030000020380000207047000007B50E4B43
:10113800002100915A6C42F480425A645A6C02F4BD
:1011480080420092009A01911A6C42F080521A640F
:101158001B6C03F0805301930720019BFFF710FAE3
:1011680003B05DF804FB00BF003802407047FEE79B
:10117800FEE7FEE7FEE7704770477047FFF7EEB9F6
:101188000E4B1B685A6B0E4B1A601A6892B1D3ED5E
:10119800007A0C4BF8EE677AF7EE006A86EEA77ACB
:1011A80083ED007AD3ED007A9FED077A67EE877AB0
:1011B800C3ED007A0148FFF7AABD00BF3C0000203C
:1011C8002C0000202800002000007A44054BD3F8AA
:1011D800882042F47002C3F888204FF000629A60B9
:1011E800704700BF00ED00E010B58CB0242200214C
:1011F80003A800F0ADF81248124A3F2380E80C001B
:101208004FF6FF730024C36003A9012301940294DD
:101218008460046144618461039305930993FFF733
:1012280067FE08B1FFF780FF302301A90448019346
:101238000294FFF7A9FE08B1FFF776FF0CB010BDC6
:101248007C0000200000014010B5044688B014223C
:10125800002103A800F07CF82268144B9A4222D19E
:1012680003F59C33002101915A6C114842F00102A8
:101278005A645A6C02F001020192019A02911A6BA7
:1012880042F010021A631B6B03F010030293029BD7
:101298004FF4206303930223049303A901230593C6
:1012A8000793FFF7C9F908B010BD00BF000001405F
:1012B80000100240DFF834D0002103E00C4B5B58EB
:1012C800435004310B480C4B42189A42F6D30B4A50
:1012D80002E0002342F8043B094B9A42F9D3FFF796
:1012E80075FF00F011F8FFF7FFFE704700000220BD
:1012F800A0130008000000200C0000200C000020B3
:10130800BC000020FEE7000070B50D4E0D4CA41B7C
:10131800A4100025A54209D10B4E0C4C00F020F872
:10132800A41BA4100025A54205D170BD56F8253090
:1013380098470135EEE756F8253098470135F2E72A
:101348009813000898130008981300089C130008C5
:1013580002440346934200D1704703F8011BF9E7A2
:10136800F8B500BFF8BC08BC9E467047F8B500BF8A
:08137800F8BC08BC9E4670475A
:101380000000000000000000010203040607080935
:0813900078EEFF7F0100000070
:04139800BD0100088B
:04139C0099010008AB
:0C13A00001000000100000000024F40018
:04000005080012BD20
:00000001FF
